{
  "contractName": "HotelBooking",
  "abi": [
    {
      "anonymous": false,
      "inputs": [
        {
          "indexed": true,
          "internalType": "uint256",
          "name": "hotelId",
          "type": "uint256"
        },
        {
          "indexed": false,
          "internalType": "string",
          "name": "name",
          "type": "string"
        },
        {
          "indexed": false,
          "internalType": "address",
          "name": "manager",
          "type": "address"
        }
      ],
      "name": "HotelAdded",
      "type": "event"
    },
    {
      "anonymous": false,
      "inputs": [
        {
          "indexed": true,
          "internalType": "uint256",
          "name": "id",
          "type": "uint256"
        }
      ],
      "name": "ReservationCancelled",
      "type": "event"
    },
    {
      "anonymous": false,
      "inputs": [
        {
          "indexed": true,
          "internalType": "uint256",
          "name": "id",
          "type": "uint256"
        },
        {
          "indexed": true,
          "internalType": "address",
          "name": "user",
          "type": "address"
        },
        {
          "indexed": false,
          "internalType": "uint256",
          "name": "hotelId",
          "type": "uint256"
        }
      ],
      "name": "ReservationCreated",
      "type": "event"
    },
    {
      "anonymous": false,
      "inputs": [
        {
          "indexed": true,
          "internalType": "uint256",
          "name": "hotelId",
          "type": "uint256"
        },
        {
          "indexed": false,
          "internalType": "uint256",
          "name": "roomNumber",
          "type": "uint256"
        }
      ],
      "name": "RoomAdded",
      "type": "event"
    },
    {
      "anonymous": false,
      "inputs": [
        {
          "indexed": true,
          "internalType": "uint256",
          "name": "hotelId",
          "type": "uint256"
        },
        {
          "indexed": false,
          "internalType": "uint256",
          "name": "roomNumber",
          "type": "uint256"
        },
        {
          "indexed": false,
          "internalType": "enum HotelBooking.RoomStatus",
          "name": "status",
          "type": "uint8"
        }
      ],
      "name": "RoomStatusUpdated",
      "type": "event"
    },
    {
      "inputs": [
        {
          "internalType": "uint256",
          "name": "",
          "type": "uint256"
        },
        {
          "internalType": "uint256",
          "name": "",
          "type": "uint256"
        }
      ],
      "name": "dateReservationCount",
      "outputs": [
        {
          "internalType": "uint256",
          "name": "",
          "type": "uint256"
        }
      ],
      "stateMutability": "view",
      "type": "function",
      "constant": true
    },
    {
      "inputs": [],
      "name": "hotelCount",
      "outputs": [
        {
          "internalType": "uint256",
          "name": "",
          "type": "uint256"
        }
      ],
      "stateMutability": "view",
      "type": "function",
      "constant": true
    },
    {
      "inputs": [
        {
          "internalType": "uint256",
          "name": "",
          "type": "uint256"
        },
        {
          "internalType": "uint256",
          "name": "",
          "type": "uint256"
        }
      ],
      "name": "hotelRooms",
      "outputs": [
        {
          "internalType": "uint256",
          "name": "roomNumber",
          "type": "uint256"
        },
        {
          "internalType": "enum HotelBooking.RoomStatus",
          "name": "status",
          "type": "uint8"
        },
        {
          "internalType": "uint256",
          "name": "price",
          "type": "uint256"
        },
        {
          "internalType": "string",
          "name": "ipfsHash",
          "type": "string"
        }
      ],
      "stateMutability": "view",
      "type": "function",
      "constant": true
    },
    {
      "inputs": [
        {
          "internalType": "uint256",
          "name": "",
          "type": "uint256"
        },
        {
          "internalType": "uint256",
          "name": "",
          "type": "uint256"
        }
      ],
      "name": "hotelRoomsList",
      "outputs": [
        {
          "internalType": "uint256",
          "name": "",
          "type": "uint256"
        }
      ],
      "stateMutability": "view",
      "type": "function",
      "constant": true
    },
    {
      "inputs": [
        {
          "internalType": "uint256",
          "name": "",
          "type": "uint256"
        }
      ],
      "name": "hotels",
      "outputs": [
        {
          "internalType": "uint256",
          "name": "id",
          "type": "uint256"
        },
        {
          "internalType": "string",
          "name": "name",
          "type": "string"
        },
        {
          "internalType": "address",
          "name": "manager",
          "type": "address"
        },
        {
          "internalType": "bool",
          "name": "isActive",
          "type": "bool"
        },
        {
          "internalType": "string",
          "name": "ipfsHash",
          "type": "string"
        }
      ],
      "stateMutability": "view",
      "type": "function",
      "constant": true
    },
    {
      "inputs": [
        {
          "internalType": "uint256",
          "name": "",
          "type": "uint256"
        }
      ],
      "name": "reservations",
      "outputs": [
        {
          "internalType": "uint256",
          "name": "id",
          "type": "uint256"
        },
        {
          "internalType": "address",
          "name": "user",
          "type": "address"
        },
        {
          "internalType": "uint256",
          "name": "hotelId",
          "type": "uint256"
        },
        {
          "internalType": "uint256",
          "name": "roomNumber",
          "type": "uint256"
        },
        {
          "internalType": "uint256",
          "name": "checkInDate",
          "type": "uint256"
        },
        {
          "internalType": "uint256",
          "name": "checkOutDate",
          "type": "uint256"
        },
        {
          "internalType": "uint8",
          "name": "status",
          "type": "uint8"
        },
        {
          "internalType": "uint256",
          "name": "amount",
          "type": "uint256"
        },
        {
          "internalType": "uint8",
          "name": "rating",
          "type": "uint8"
        },
        {
          "internalType": "string",
          "name": "ipfsHash",
          "type": "string"
        }
      ],
      "stateMutability": "view",
      "type": "function",
      "constant": true
    },
    {
      "inputs": [
        {
          "internalType": "uint256",
          "name": "",
          "type": "uint256"
        },
        {
          "internalType": "uint256",
          "name": "",
          "type": "uint256"
        }
      ],
      "name": "yearMonthReservationCount",
      "outputs": [
        {
          "internalType": "uint256",
          "name": "",
          "type": "uint256"
        }
      ],
      "stateMutability": "view",
      "type": "function",
      "constant": true
    },
    {
      "inputs": [
        {
          "internalType": "uint256",
          "name": "",
          "type": "uint256"
        }
      ],
      "name": "yearTotalReservationCount",
      "outputs": [
        {
          "internalType": "uint256",
          "name": "",
          "type": "uint256"
        }
      ],
      "stateMutability": "view",
      "type": "function",
      "constant": true
    },
    {
      "inputs": [
        {
          "internalType": "string",
          "name": "_name",
          "type": "string"
        },
        {
          "internalType": "string",
          "name": "_ipfsHash",
          "type": "string"
        }
      ],
      "name": "addHotel",
      "outputs": [],
      "stateMutability": "nonpayable",
      "type": "function"
    },
    {
      "inputs": [
        {
          "internalType": "uint256",
          "name": "_hotelId",
          "type": "uint256"
        },
        {
          "internalType": "uint256",
          "name": "_roomNumber",
          "type": "uint256"
        },
        {
          "internalType": "uint256",
          "name": "_price",
          "type": "uint256"
        },
        {
          "internalType": "string",
          "name": "_ipfsHash",
          "type": "string"
        }
      ],
      "name": "addRoom",
      "outputs": [],
      "stateMutability": "nonpayable",
      "type": "function"
    },
    {
      "inputs": [
        {
          "internalType": "uint256",
          "name": "_hotelId",
          "type": "uint256"
        },
        {
          "internalType": "uint256",
          "name": "_roomNumber",
          "type": "uint256"
        },
        {
          "internalType": "uint256",
          "name": "_checkInDate",
          "type": "uint256"
        },
        {
          "internalType": "uint256",
          "name": "_checkOutDate",
          "type": "uint256"
        },
        {
          "internalType": "string",
          "name": "_ipfsHash",
          "type": "string"
        }
      ],
      "name": "createReservation",
      "outputs": [],
      "stateMutability": "payable",
      "type": "function",
      "payable": true
    },
    {
      "inputs": [
        {
          "internalType": "uint256",
          "name": "_reservationId",
          "type": "uint256"
        }
      ],
      "name": "cancelReservation",
      "outputs": [],
      "stateMutability": "nonpayable",
      "type": "function"
    },
    {
      "inputs": [
        {
          "internalType": "uint256",
          "name": "_reservationId",
          "type": "uint256"
        },
        {
          "internalType": "uint8",
          "name": "_rating",
          "type": "uint8"
        }
      ],
      "name": "rateReservation",
      "outputs": [],
      "stateMutability": "nonpayable",
      "type": "function"
    },
    {
      "inputs": [
        {
          "internalType": "uint256",
          "name": "_hotelId",
          "type": "uint256"
        },
        {
          "internalType": "uint256",
          "name": "_roomNumber",
          "type": "uint256"
        },
        {
          "internalType": "enum HotelBooking.RoomStatus",
          "name": "_newStatus",
          "type": "uint8"
        }
      ],
      "name": "updateRoomStatus",
      "outputs": [],
      "stateMutability": "nonpayable",
      "type": "function"
    },
    {
      "inputs": [
        {
          "internalType": "uint256",
          "name": "_reservationId",
          "type": "uint256"
        }
      ],
      "name": "getReservation",
      "outputs": [
        {
          "components": [
            {
              "internalType": "uint256",
              "name": "id",
              "type": "uint256"
            },
            {
              "internalType": "address",
              "name": "user",
              "type": "address"
            },
            {
              "internalType": "uint256",
              "name": "hotelId",
              "type": "uint256"
            },
            {
              "internalType": "uint256",
              "name": "roomNumber",
              "type": "uint256"
            },
            {
              "internalType": "uint256",
              "name": "checkInDate",
              "type": "uint256"
            },
            {
              "internalType": "uint256",
              "name": "checkOutDate",
              "type": "uint256"
            },
            {
              "internalType": "uint8",
              "name": "status",
              "type": "uint8"
            },
            {
              "internalType": "uint256",
              "name": "amount",
              "type": "uint256"
            },
            {
              "internalType": "uint8",
              "name": "rating",
              "type": "uint8"
            },
            {
              "internalType": "string",
              "name": "ipfsHash",
              "type": "string"
            }
          ],
          "internalType": "struct HotelBooking.Reservation",
          "name": "",
          "type": "tuple"
        }
      ],
      "stateMutability": "view",
      "type": "function",
      "constant": true
    },
    {
      "inputs": [
        {
          "internalType": "uint256",
          "name": "_year",
          "type": "uint256"
        },
        {
          "internalType": "uint256",
          "name": "_month",
          "type": "uint256"
        }
      ],
      "name": "getMonthlyReservationCount",
      "outputs": [
        {
          "internalType": "uint256",
          "name": "",
          "type": "uint256"
        }
      ],
      "stateMutability": "view",
      "type": "function",
      "constant": true
    },
    {
      "inputs": [
        {
          "internalType": "uint256",
          "name": "_year",
          "type": "uint256"
        }
      ],
      "name": "getTotalReservationsForYear",
      "outputs": [
        {
          "internalType": "uint256",
          "name": "",
          "type": "uint256"
        }
      ],
      "stateMutability": "view",
      "type": "function",
      "constant": true
    },
    {
      "inputs": [
        {
          "internalType": "uint256",
          "name": "_year",
          "type": "uint256"
        }
      ],
      "name": "getMonthlyReservationsForYear",
      "outputs": [
        {
          "internalType": "uint256[]",
          "name": "",
          "type": "uint256[]"
        }
      ],
      "stateMutability": "view",
      "type": "function",
      "constant": true
    },
    {
      "inputs": [
        {
          "internalType": "uint256",
          "name": "_hotelId",
          "type": "uint256"
        }
      ],
      "name": "getHotelRooms",
      "outputs": [
        {
          "internalType": "uint256[]",
          "name": "",
          "type": "uint256[]"
        }
      ],
      "stateMutability": "view",
      "type": "function",
      "constant": true
    },
    {
      "inputs": [
        {
          "internalType": "uint256",
          "name": "_hotelId",
          "type": "uint256"
        },
        {
          "internalType": "uint256",
          "name": "_date",
          "type": "uint256"
        }
      ],
      "name": "getHotelReservationsForDate",
      "outputs": [
        {
          "internalType": "uint256[4]",
          "name": "",
          "type": "uint256[4]"
        }
      ],
      "stateMutability": "view",
      "type": "function",
      "constant": true
    }
  ],
  "bytecode": "0x608060405234801561001057600080fd5b5061300c806100206000396000f3fe60806040526004361061011f5760003560e01c8063928fe053116100a0578063d57763c311610064578063d57763c314610442578063e5c9b6ff1461047f578063ed17c7c7146104bc578063eda5611b146104f9578063ef6b99f8146105245761011f565b8063928fe053146103325780639a60595d14610372578063a768e796146103af578063ae5e6cf4146103d8578063cd338265146104015761011f565b80634b7b876c116100e75780634b7b876c146102295780634dab1f45146102525780635c2012b01461028f5780635fa8c886146102b857806373a95a9c146102f55761011f565b8063067cf83214610124578063096eeffc1461016a5780630e530dfa146101a757806322587434146101d057806348807fe81461020d575b600080fd5b34801561013057600080fd5b5061014b60048036038101906101469190611c69565b610561565b6040516101619a99989796959493929190611d92565b60405180910390f35b34801561017657600080fd5b50610191600480360381019061018c9190611c69565b610677565b60405161019e9190611e35565b60405180910390f35b3480156101b357600080fd5b506101ce60048036038101906101c99190611f85565b61068f565b005b3480156101dc57600080fd5b506101f760048036038101906101f29190611ffd565b6107de565b6040516102049190611e35565b60405180910390f35b6102276004803603810190610222919061203d565b610803565b005b34801561023557600080fd5b50610250600480360381019061024b91906120f9565b610c78565b005b34801561025e57600080fd5b5061027960048036038101906102749190611c69565b610dac565b604051610286919061220a565b60405180910390f35b34801561029b57600080fd5b506102b660048036038101906102b1919061222c565b610e78565b005b3480156102c457600080fd5b506102df60048036038101906102da9190611c69565b6110b5565b6040516102ec9190611e35565b60405180910390f35b34801561030157600080fd5b5061031c60048036038101906103179190611ffd565b6110d2565b6040516103299190612333565b60405180910390f35b34801561033e57600080fd5b5061035960048036038101906103549190611ffd565b6111e3565b60405161036994939291906123c5565b60405180910390f35b34801561037e57600080fd5b5061039960048036038101906103949190611ffd565b6112b5565b6040516103a69190611e35565b60405180910390f35b3480156103bb57600080fd5b506103d660048036038101906103d1919061243d565b6112da565b005b3480156103e457600080fd5b506103ff60048036038101906103fa9190611c69565b611452565b005b34801561040d57600080fd5b5061042860048036038101906104239190611c69565b611762565b604051610439959493929190612498565b60405180910390f35b34801561044e57600080fd5b5061046960048036038101906104649190611c69565b6118d5565b604051610476919061263b565b60405180910390f35b34801561048b57600080fd5b506104a660048036038101906104a19190611ffd565b611a60565b6040516104b39190611e35565b60405180910390f35b3480156104c857600080fd5b506104e360048036038101906104de9190611ffd565b611a8f565b6040516104f09190611e35565b60405180910390f35b34801561050557600080fd5b5061050e611ac0565b60405161051b9190611e35565b60405180910390f35b34801561053057600080fd5b5061054b60048036038101906105469190611c69565b611ac6565b604051610558919061220a565b60405180910390f35b60006020528060005260406000206000915090508060000154908060010160009054906101000a900473ffffffffffffffffffffffffffffffffffffffff16908060020154908060030154908060040154908060050154908060060160009054906101000a900460ff16908060070154908060080160009054906101000a900460ff16908060090180546105f49061268c565b80601f01602080910402602001604051908101604052809291908181526020018280546106209061268c565b801561066d5780601f106106425761010080835404028352916020019161066d565b820191906000526020600020905b81548152906001019060200180831161065057829003601f168201915b505050505090508a565b60056020528060005260406000206000915090505481565b600760008154809291906106a2906126ec565b91905055506040518060a0016040528060075481526020018381526020013373ffffffffffffffffffffffffffffffffffffffff1681526020016001151581526020018281525060016000600754815260200190815260200160002060008201518160000155602082015181600101908161071d91906128e0565b5060408201518160020160006101000a81548173ffffffffffffffffffffffffffffffffffffffff021916908373ffffffffffffffffffffffffffffffffffffffff16021790555060608201518160020160146101000a81548160ff021916908315150217905550608082015181600301908161079a91906128e0565b509050506007547f28ca1b699596cf021a16758f6c1bea56189f733d3f587eae7a5fdda5e3189fc083336040516107d29291906129b2565b60405180910390a25050565b6004602052816000526040600020602052806000526040600020600091509150505481565b6001600086815260200190815260200160002060020160149054906101000a900460ff16610866576040517f08c379a000000000000000000000000000000000000000000000000000000000815260040161085d90612a2e565b60405180910390fd5b6000600381111561087a5761087961234e565b5b60026000878152602001908152602001600020600086815260200190815260200160002060010160009054906101000a900460ff1660038111156108c1576108c061234e565b5b14610901576040517f08c379a00000000000000000000000000000000000000000000000000000000081526004016108f890612a9a565b60405180910390fd5b818310610943576040517f08c379a000000000000000000000000000000000000000000000000000000000815260040161093a90612b06565b60405180910390fd5b61094f85858585611b31565b341015610991576040517f08c379a000000000000000000000000000000000000000000000000000000000815260040161098890612b72565b60405180910390fd5b60006001600360008881526020019081526020016000206000868152602001908152602001600020546109c49190612b92565b90506000816103e8886109d79190612bc6565b633b9aca00876109e79190612bc6565b6109f19190612b92565b6109fb9190612b92565b905060008060008381526020019081526020016000209050818160000181905550338160010160006101000a81548173ffffffffffffffffffffffffffffffffffffffff021916908373ffffffffffffffffffffffffffffffffffffffff16021790555087816002018190555086816003018190555085816004018190555084816005018190555060018160060160006101000a81548160ff021916908360ff16021790555034816007018190555083816009019081610abb91906128e0565b5060008690505b85811015610bce57600360008a815260200190815260200160002060008281526020019081526020016000206000815480929190610aff906126ec565b919050555060006107b26301e1338083610b199190612c37565b610b239190612b92565b90506000600162278d006301e1338085610b3d9190612c68565b610b479190612c37565b610b519190612b92565b90506004600083815260200190815260200160002060008281526020019081526020016000206000815480929190610b88906126ec565b9190505550600560008381526020019081526020016000206000815480929190610bb1906126ec565b919050555050506201518081610bc79190612b92565b9050610ac2565b506001600260008a8152602001908152602001600020600089815260200190815260200160002060010160006101000a81548160ff02191690836003811115610c1a57610c1961234e565b5b02179055503373ffffffffffffffffffffffffffffffffffffffff16827f24c83a02ab404799eb65cd159ac9266aabce842e658c2ecdd12173c403d4d3538a604051610c669190611e35565b60405180910390a35050505050505050565b823373ffffffffffffffffffffffffffffffffffffffff166001600083815260200190815260200160002060020160009054906101000a900473ffffffffffffffffffffffffffffffffffffffff1673ffffffffffffffffffffffffffffffffffffffff1614610d1d576040517f08c379a0000000000000000000000000000000000000000000000000000000008152600401610d1490612ce5565b60405180910390fd5b8160026000868152602001908152602001600020600085815260200190815260200160002060010160006101000a81548160ff02191690836003811115610d6757610d6661234e565b5b0217905550837f035e4034d7a9033a8599284eca13273618a53e2c3d85dd322ba71d6c739ca52e8484604051610d9e929190612d05565b60405180910390a250505050565b60606000600c67ffffffffffffffff811115610dcb57610dca611e5a565b5b604051908082528060200260200182016040528015610df95781602001602082028036833780820191505090505b5090506000600190505b600c8111610e6e576004600085815260200190815260200160002060008281526020019081526020016000205482600183610e3e9190612d2e565b81518110610e4f57610e4e612d62565b5b6020026020010181815250508080610e66906126ec565b915050610e03565b5080915050919050565b833373ffffffffffffffffffffffffffffffffffffffff166001600083815260200190815260200160002060020160009054906101000a900473ffffffffffffffffffffffffffffffffffffffff1673ffffffffffffffffffffffffffffffffffffffff1614610f1d576040517f08c379a0000000000000000000000000000000000000000000000000000000008152600401610f1490612ce5565b60405180910390fd5b60006002600087815260200190815260200160002060008681526020019081526020016000206000015414610f87576040517f08c379a0000000000000000000000000000000000000000000000000000000008152600401610f7e90612ddd565b60405180910390fd5b604051806080016040528085815260200160006003811115610fac57610fab61234e565b5b8152602001848152602001838152506002600087815260200190815260200160002060008681526020019081526020016000206000820151816000015560208201518160010160006101000a81548160ff021916908360038111156110145761101361234e565b5b021790555060408201518160020155606082015181600301908161103891906128e0565b5090505060066000868152602001908152602001600020849080600181540180825580915050600190039060005260206000200160009091909190915055847f3d71e992e3a5d02ba5935866a962e63fa5f0611368dd933505228657237a2bb1856040516110a69190611e35565b60405180910390a25050505050565b600060056000838152602001908152602001600020549050919050565b6110da611b8e565b6110e2611b8e565b6000612710846110f29190612c37565b905060006064612710866111069190612c68565b6111109190612c37565b905060006064866111219190612c68565b905060005b60048110156111d55760008160038661113f9190612d2e565b6111499190612b92565b905060008360648661115b9190612bc6565b612710846111699190612bc6565b6111739190612b92565b61117d9190612b92565b9050600360008b81526020019081526020016000206000828152602001908152602001600020548784600481106111b7576111b6612d62565b5b602002018181525050505080806111cd906126ec565b915050611126565b508394505050505092915050565b6002602052816000526040600020602052806000526040600020600091509150508060000154908060010160009054906101000a900460ff16908060020154908060030180546112329061268c565b80601f016020809104026020016040519081016040528092919081815260200182805461125e9061268c565b80156112ab5780601f10611280576101008083540402835291602001916112ab565b820191906000526020600020905b81548152906001019060200180831161128e57829003601f168201915b5050505050905084565b6003602052816000526040600020602052806000526040600020600091509150505481565b600080600084815260200190815260200160002090503373ffffffffffffffffffffffffffffffffffffffff168160010160009054906101000a900473ffffffffffffffffffffffffffffffffffffffff1673ffffffffffffffffffffffffffffffffffffffff1614611382576040517f08c379a000000000000000000000000000000000000000000000000000000000815260040161137990612e49565b60405180910390fd5b60018160060160009054906101000a900460ff1660ff16146113d9576040517f08c379a00000000000000000000000000000000000000000000000000000000081526004016113d090612eb5565b60405180910390fd5b60018260ff16101580156113f1575060058260ff1611155b611430576040517f08c379a000000000000000000000000000000000000000000000000000000000815260040161142790612f21565b60405180910390fd5b818160080160006101000a81548160ff021916908360ff160217905550505050565b600080600083815260200190815260200160002090503373ffffffffffffffffffffffffffffffffffffffff168160010160009054906101000a900473ffffffffffffffffffffffffffffffffffffffff1673ffffffffffffffffffffffffffffffffffffffff16146114fa576040517f08c379a00000000000000000000000000000000000000000000000000000000081526004016114f190612e49565b60405180910390fd5b60008160060160009054906101000a900460ff1660ff1603611551576040517f08c379a000000000000000000000000000000000000000000000000000000000815260040161154890612f8d565b60405180910390fd5b60008160060160006101000a81548160ff021916908360ff1602179055506000816004015490505b816005015481101561168d576003600083600201548152602001908152602001600020600082815260200190815260200160002060008154809291906115be90612fad565b919050555060006107b26301e13380836115d89190612c37565b6115e29190612b92565b90506000600162278d006301e13380856115fc9190612c68565b6116069190612c37565b6116109190612b92565b9050600460008381526020019081526020016000206000828152602001908152602001600020600081548092919061164790612fad565b919050555060056000838152602001908152602001600020600081548092919061167090612fad565b9190505550505062015180816116869190612b92565b9050611579565b506000600260008360020154815260200190815260200160002060008360030154815260200190815260200160002060010160006101000a81548160ff021916908360038111156116e1576116e061234e565b5b02179055503373ffffffffffffffffffffffffffffffffffffffff166108fc82600701549081150290604051600060405180830381858888f19350505050158015611730573d6000803e3d6000fd5b50817fb1c5f0f741c886bcedb0e20ece5e7e2c5d6c479a94a58cb38db6924992f5992960405160405180910390a25050565b600160205280600052604060002060009150905080600001549080600101805461178b9061268c565b80601f01602080910402602001604051908101604052809291908181526020018280546117b79061268c565b80156118045780601f106117d957610100808354040283529160200191611804565b820191906000526020600020905b8154815290600101906020018083116117e757829003601f168201915b5050505050908060020160009054906101000a900473ffffffffffffffffffffffffffffffffffffffff16908060020160149054906101000a900460ff16908060030180546118529061268c565b80601f016020809104026020016040519081016040528092919081815260200182805461187e9061268c565b80156118cb5780601f106118a0576101008083540402835291602001916118cb565b820191906000526020600020905b8154815290600101906020018083116118ae57829003601f168201915b5050505050905085565b6118dd611bb0565b60008083815260200190815260200160002060405180610140016040529081600082015481526020016001820160009054906101000a900473ffffffffffffffffffffffffffffffffffffffff1673ffffffffffffffffffffffffffffffffffffffff1673ffffffffffffffffffffffffffffffffffffffff168152602001600282015481526020016003820154815260200160048201548152602001600582015481526020016006820160009054906101000a900460ff1660ff1660ff168152602001600782015481526020016008820160009054906101000a900460ff1660ff1660ff1681526020016009820180546119d79061268c565b80601f0160208091040260200160405190810160405280929190818152602001828054611a039061268c565b8015611a505780601f10611a2557610100808354040283529160200191611a50565b820191906000526020600020905b815481529060010190602001808311611a3357829003601f168201915b5050505050815250509050919050565b600060046000848152602001908152602001600020600083815260200190815260200160002054905092915050565b60066020528160005260406000208181548110611aab57600080fd5b90600052602060002001600091509150505481565b60075481565b606060066000838152602001908152602001600020805480602002602001604051908101604052809291908181526020018280548015611b2557602002820191906000526020600020905b815481526020019060010190808311611b11575b50505050509050919050565b600080620151808484611b449190612d2e565b611b4e9190612c37565b90508060026000888152602001908152602001600020600087815260200190815260200160002060020154611b839190612bc6565b915050949350505050565b6040518060800160405280600490602082028036833780820191505090505090565b60405180610140016040528060008152602001600073ffffffffffffffffffffffffffffffffffffffff16815260200160008152602001600081526020016000815260200160008152602001600060ff16815260200160008152602001600060ff168152602001606081525090565b6000604051905090565b600080fd5b600080fd5b6000819050919050565b611c4681611c33565b8114611c5157600080fd5b50565b600081359050611c6381611c3d565b92915050565b600060208284031215611c7f57611c7e611c29565b5b6000611c8d84828501611c54565b91505092915050565b611c9f81611c33565b82525050565b600073ffffffffffffffffffffffffffffffffffffffff82169050919050565b6000611cd082611ca5565b9050919050565b611ce081611cc5565b82525050565b600060ff82169050919050565b611cfc81611ce6565b82525050565b600081519050919050565b600082825260208201905092915050565b60005b83811015611d3c578082015181840152602081019050611d21565b60008484015250505050565b6000601f19601f8301169050919050565b6000611d6482611d02565b611d6e8185611d0d565b9350611d7e818560208601611d1e565b611d8781611d48565b840191505092915050565b600061014082019050611da8600083018d611c96565b611db5602083018c611cd7565b611dc2604083018b611c96565b611dcf606083018a611c96565b611ddc6080830189611c96565b611de960a0830188611c96565b611df660c0830187611cf3565b611e0360e0830186611c96565b611e11610100830185611cf3565b818103610120830152611e248184611d59565b90509b9a5050505050505050505050565b6000602082019050611e4a6000830184611c96565b92915050565b600080fd5b600080fd5b7f4e487b7100000000000000000000000000000000000000000000000000000000600052604160045260246000fd5b611e9282611d48565b810181811067ffffffffffffffff82111715611eb157611eb0611e5a565b5b80604052505050565b6000611ec4611c1f565b9050611ed08282611e89565b919050565b600067ffffffffffffffff821115611ef057611eef611e5a565b5b611ef982611d48565b9050602081019050919050565b82818337600083830152505050565b6000611f28611f2384611ed5565b611eba565b905082815260208101848484011115611f4457611f43611e55565b5b611f4f848285611f06565b509392505050565b600082601f830112611f6c57611f6b611e50565b5b8135611f7c848260208601611f15565b91505092915050565b60008060408385031215611f9c57611f9b611c29565b5b600083013567ffffffffffffffff811115611fba57611fb9611c2e565b5b611fc685828601611f57565b925050602083013567ffffffffffffffff811115611fe757611fe6611c2e565b5b611ff385828601611f57565b9150509250929050565b6000806040838503121561201457612013611c29565b5b600061202285828601611c54565b925050602061203385828601611c54565b9150509250929050565b600080600080600060a0868803121561205957612058611c29565b5b600061206788828901611c54565b955050602061207888828901611c54565b945050604061208988828901611c54565b935050606061209a88828901611c54565b925050608086013567ffffffffffffffff8111156120bb576120ba611c2e565b5b6120c788828901611f57565b9150509295509295909350565b600481106120e157600080fd5b50565b6000813590506120f3816120d4565b92915050565b60008060006060848603121561211257612111611c29565b5b600061212086828701611c54565b935050602061213186828701611c54565b9250506040612142868287016120e4565b9150509250925092565b600081519050919050565b600082825260208201905092915050565b6000819050602082019050919050565b61218181611c33565b82525050565b60006121938383612178565b60208301905092915050565b6000602082019050919050565b60006121b78261214c565b6121c18185612157565b93506121cc83612168565b8060005b838110156121fd5781516121e48882612187565b97506121ef8361219f565b9250506001810190506121d0565b5085935050505092915050565b6000602082019050818103600083015261222481846121ac565b905092915050565b6000806000806080858703121561224657612245611c29565b5b600061225487828801611c54565b945050602061226587828801611c54565b935050604061227687828801611c54565b925050606085013567ffffffffffffffff81111561229757612296611c2e565b5b6122a387828801611f57565b91505092959194509250565b600060049050919050565b600081905092915050565b6000819050919050565b6000602082019050919050565b6122e5816122af565b6122ef81846122ba565b92506122fa826122c5565b8060005b8381101561232b5781516123128782612187565b965061231d836122cf565b9250506001810190506122fe565b505050505050565b600060808201905061234860008301846122dc565b92915050565b7f4e487b7100000000000000000000000000000000000000000000000000000000600052602160045260246000fd5b6004811061238e5761238d61234e565b5b50565b600081905061239f8261237d565b919050565b60006123af82612391565b9050919050565b6123bf816123a4565b82525050565b60006080820190506123da6000830187611c96565b6123e760208301866123b6565b6123f46040830185611c96565b81810360608301526124068184611d59565b905095945050505050565b61241a81611ce6565b811461242557600080fd5b50565b60008135905061243781612411565b92915050565b6000806040838503121561245457612453611c29565b5b600061246285828601611c54565b925050602061247385828601612428565b9150509250929050565b60008115159050919050565b6124928161247d565b82525050565b600060a0820190506124ad6000830188611c96565b81810360208301526124bf8187611d59565b90506124ce6040830186611cd7565b6124db6060830185612489565b81810360808301526124ed8184611d59565b90509695505050505050565b61250281611cc5565b82525050565b61251181611ce6565b82525050565b600082825260208201905092915050565b600061253382611d02565b61253d8185612517565b935061254d818560208601611d1e565b61255681611d48565b840191505092915050565b60006101408301600083015161257a6000860182612178565b50602083015161258d60208601826124f9565b5060408301516125a06040860182612178565b5060608301516125b36060860182612178565b5060808301516125c66080860182612178565b5060a08301516125d960a0860182612178565b5060c08301516125ec60c0860182612508565b5060e08301516125ff60e0860182612178565b50610100830151612614610100860182612508565b5061012083015184820361012086015261262e8282612528565b9150508091505092915050565b600060208201905081810360008301526126558184612561565b905092915050565b7f4e487b7100000000000000000000000000000000000000000000000000000000600052602260045260246000fd5b600060028204905060018216806126a457607f821691505b6020821081036126b7576126b661265d565b5b50919050565b7f4e487b7100000000000000000000000000000000000000000000000000000000600052601160045260246000fd5b60006126f782611c33565b91507fffffffffffffffffffffffffffffffffffffffffffffffffffffffffffffffff8203612729576127286126bd565b5b600182019050919050565b60008190508160005260206000209050919050565b60006020601f8301049050919050565b600082821b905092915050565b6000600883026127967fffffffffffffffffffffffffffffffffffffffffffffffffffffffffffffffff82612759565b6127a08683612759565b95508019841693508086168417925050509392505050565b6000819050919050565b60006127dd6127d86127d384611c33565b6127b8565b611c33565b9050919050565b6000819050919050565b6127f7836127c2565b61280b612803826127e4565b848454612766565b825550505050565b600090565b612820612813565b61282b8184846127ee565b505050565b5b8181101561284f57612844600082612818565b600181019050612831565b5050565b601f8211156128945761286581612734565b61286e84612749565b8101602085101561287d578190505b61289161288985612749565b830182612830565b50505b505050565b600082821c905092915050565b60006128b760001984600802612899565b1980831691505092915050565b60006128d083836128a6565b9150826002028217905092915050565b6128e982611d02565b67ffffffffffffffff81111561290257612901611e5a565b5b61290c825461268c565b612917828285612853565b600060209050601f83116001811461294a5760008415612938578287015190505b61294285826128c4565b8655506129aa565b601f19841661295886612734565b60005b828110156129805784890151825560018201915060208501945060208101905061295b565b8683101561299d5784890151612999601f8916826128a6565b8355505b6001600288020188555050505b505050505050565b600060408201905081810360008301526129cc8185611d59565b90506129db6020830184611cd7565b9392505050565b7f486f74656c206973206e6f742061637469766500000000000000000000000000600082015250565b6000612a18601383611d0d565b9150612a23826129e2565b602082019050919050565b60006020820190508181036000830152612a4781612a0b565b9050919050565b7f526f6f6d206973206e6f7420617661696c61626c650000000000000000000000600082015250565b6000612a84601583611d0d565b9150612a8f82612a4e565b602082019050919050565b60006020820190508181036000830152612ab381612a77565b9050919050565b7f496e76616c696420646174652072616e67650000000000000000000000000000600082015250565b6000612af0601283611d0d565b9150612afb82612aba565b602082019050919050565b60006020820190508181036000830152612b1f81612ae3565b9050919050565b7f496e73756666696369656e74207061796d656e74000000000000000000000000600082015250565b6000612b5c601483611d0d565b9150612b6782612b26565b602082019050919050565b60006020820190508181036000830152612b8b81612b4f565b9050919050565b6000612b9d82611c33565b9150612ba883611c33565b9250828201905080821115612bc057612bbf6126bd565b5b92915050565b6000612bd182611c33565b9150612bdc83611c33565b9250828202612bea81611c33565b91508282048414831517612c0157612c006126bd565b5b5092915050565b7f4e487b7100000000000000000000000000000000000000000000000000000000600052601260045260246000fd5b6000612c4282611c33565b9150612c4d83611c33565b925082612c5d57612c5c612c08565b5b828204905092915050565b6000612c7382611c33565b9150612c7e83611c33565b925082612c8e57612c8d612c08565b5b828206905092915050565b7f4e6f742074686520686f74656c206d616e616765720000000000000000000000600082015250565b6000612ccf601583611d0d565b9150612cda82612c99565b602082019050919050565b60006020820190508181036000830152612cfe81612cc2565b9050919050565b6000604082019050612d1a6000830185611c96565b612d2760208301846123b6565b9392505050565b6000612d3982611c33565b9150612d4483611c33565b9250828203905081811115612d5c57612d5b6126bd565b5b92915050565b7f4e487b7100000000000000000000000000000000000000000000000000000000600052603260045260246000fd5b7f526f6f6d20616c72656164792065786973747300000000000000000000000000600082015250565b6000612dc7601383611d0d565b9150612dd282612d91565b602082019050919050565b60006020820190508181036000830152612df681612dba565b9050919050565b7f4e6f7420746865207265736572766174696f6e206f776e657200000000000000600082015250565b6000612e33601983611d0d565b9150612e3e82612dfd565b602082019050919050565b60006020820190508181036000830152612e6281612e26565b9050919050565b7f5265736572766174696f6e206e6f7420636f6e6669726d656400000000000000600082015250565b6000612e9f601983611d0d565b9150612eaa82612e69565b602082019050919050565b60006020820190508181036000830152612ece81612e92565b9050919050565b7f526174696e67206d757374206265206265747765656e203120616e6420350000600082015250565b6000612f0b601e83611d0d565b9150612f1682612ed5565b602082019050919050565b60006020820190508181036000830152612f3a81612efe565b9050919050565b7f5265736572766174696f6e20616c72656164792063616e63656c6c6564000000600082015250565b6000612f77601d83611d0d565b9150612f8282612f41565b602082019050919050565b60006020820190508181036000830152612fa681612f6a565b9050919050565b6000612fb882611c33565b915060008203612fcb57612fca6126bd565b5b60018203905091905056fea264697066735822122041e2d86cc95b4df008e442838a5c630238e7b9e90da13eab65c8340c1f18a42864736f6c63430008130033",
  "immutableReferences": {},
  "source": "// SPDX-License-Identifier: MIT\npragma solidity ^0.8.0;\n\ncontract HotelBooking {\n    //    \n    enum RoomStatus {\n        Available,\n        Booked,\n        NeedsCleaning,\n        Maintenance\n    }\n\n    //    \n    struct Reservation {\n        uint256 id; //   \n        address user; //   \n        uint256 hotelId; //   \n        uint256 roomNumber; //  \n        uint256 checkInDate; //   (Unix )\n        uint256 checkOutDate; //   (Unix )\n        uint8 status; //   (0: , 1: )\n        uint256 amount; //   (Wei )\n        uint8 rating; //  (1-5)\n        string ipfsHash; // IPFS  (   )\n    }\n\n    //    \n    struct Room {\n        uint256 roomNumber; //  \n        RoomStatus status; //  \n        uint256 price; // 1  (Wei )\n        string ipfsHash; // IPFS  (    )\n    }\n\n    //    \n    struct Hotel {\n        uint256 id; //   \n        string name; //  \n        address manager; //   \n        bool isActive; //   \n        string ipfsHash; // IPFS  (    )\n    }\n\n    //  \n    mapping(uint256 => Reservation) public reservations; //  ID =>  \n    mapping(uint256 => Hotel) public hotels; //  ID =>  \n    mapping(uint256 => mapping(uint256 => Room)) public hotelRooms; //  ID =>   =>  \n    mapping(uint256 => mapping(uint256 => uint256)) public dateReservationCount; //  ID =>  =>  \n    mapping(uint256 => mapping(uint256 => uint256))\n        public yearMonthReservationCount; //  =>  =>  \n    mapping(uint256 => uint256) public yearTotalReservationCount; //  =>   \n    mapping(uint256 => uint256[]) public hotelRoomsList; //  ID =>   \n    uint256 public hotelCount; //   \n\n    //  \n    event HotelAdded(uint256 indexed hotelId, string name, address manager);\n    event RoomAdded(uint256 indexed hotelId, uint256 roomNumber);\n    event ReservationCreated(\n        uint256 indexed id,\n        address indexed user,\n        uint256 hotelId\n    );\n    event ReservationCancelled(uint256 indexed id);\n    event RoomStatusUpdated(\n        uint256 indexed hotelId,\n        uint256 roomNumber,\n        RoomStatus status\n    );\n\n    //       modifier\n    modifier onlyHotelManager(uint256 _hotelId) {\n        require(\n            hotels[_hotelId].manager == msg.sender,\n            \"Not the hotel manager\"\n        );\n        _;\n    }\n\n    //    \n    function addHotel(string memory _name, string memory _ipfsHash) public {\n        hotelCount++;\n        hotels[hotelCount] = Hotel(\n            hotelCount,\n            _name,\n            msg.sender,\n            true,\n            _ipfsHash\n        );\n        emit HotelAdded(hotelCount, _name, msg.sender);\n    }\n\n    //     \n    function addRoom(\n        uint256 _hotelId,\n        uint256 _roomNumber,\n        uint256 _price,\n        string memory _ipfsHash\n    ) public onlyHotelManager(_hotelId) {\n        require(\n            hotelRooms[_hotelId][_roomNumber].roomNumber == 0,\n            \"Room already exists\"\n        );\n        hotelRooms[_hotelId][_roomNumber] = Room(\n            _roomNumber,\n            RoomStatus.Available,\n            _price,\n            _ipfsHash\n        );\n        hotelRoomsList[_hotelId].push(_roomNumber);\n        emit RoomAdded(_hotelId, _roomNumber);\n    }\n\n    //    \n    function createReservation(\n        uint256 _hotelId,\n        uint256 _roomNumber,\n        uint256 _checkInDate,\n        uint256 _checkOutDate,\n        string memory _ipfsHash\n    ) public payable {\n        require(hotels[_hotelId].isActive, \"Hotel is not active\");\n        require(\n            hotelRooms[_hotelId][_roomNumber].status == RoomStatus.Available,\n            \"Room is not available\"\n        );\n        require(_checkInDate < _checkOutDate, \"Invalid date range\");\n        require(\n            msg.value >=\n                calculatePrice(\n                    _hotelId,\n                    _roomNumber,\n                    _checkInDate,\n                    _checkOutDate\n                ),\n            \"Insufficient payment\"\n        );\n\n        uint256 dailyReservationCount = dateReservationCount[_hotelId][\n            _checkInDate\n        ] + 1;\n        uint256 reservationId = (_checkInDate * 1000000000) +\n            (_hotelId * 1000) +\n            dailyReservationCount;\n\n        Reservation storage newReservation = reservations[reservationId];\n        newReservation.id = reservationId;\n        newReservation.user = msg.sender;\n        newReservation.hotelId = _hotelId;\n        newReservation.roomNumber = _roomNumber;\n        newReservation.checkInDate = _checkInDate;\n        newReservation.checkOutDate = _checkOutDate;\n        newReservation.status = 1; //  \n        newReservation.amount = msg.value;\n        newReservation.ipfsHash = _ipfsHash;\n\n        for (\n            uint256 date = _checkInDate;\n            date < _checkOutDate;\n            date += 1 days\n        ) {\n            dateReservationCount[_hotelId][date]++;\n\n            uint256 year = (date / 365 days) + 1970;\n            uint256 month = ((date % 365 days) / 30 days) + 1;\n\n            yearMonthReservationCount[year][month]++;\n            yearTotalReservationCount[year]++;\n        }\n\n        hotelRooms[_hotelId][_roomNumber].status = RoomStatus.Booked;\n\n        emit ReservationCreated(reservationId, msg.sender, _hotelId);\n    }\n\n    //   \n    function cancelReservation(uint256 _reservationId) public {\n        Reservation storage reservation = reservations[_reservationId];\n        require(reservation.user == msg.sender, \"Not the reservation owner\");\n        require(reservation.status != 0, \"Reservation already cancelled\");\n\n        reservation.status = 0; //   \n\n        for (\n            uint256 date = reservation.checkInDate;\n            date < reservation.checkOutDate;\n            date += 1 days\n        ) {\n            dateReservationCount[reservation.hotelId][date]--;\n\n            uint256 year = (date / 365 days) + 1970;\n            uint256 month = ((date % 365 days) / 30 days) + 1;\n\n            yearMonthReservationCount[year][month]--;\n            yearTotalReservationCount[year]--;\n        }\n\n        hotelRooms[reservation.hotelId][reservation.roomNumber]\n            .status = RoomStatus.Available;\n\n        payable(msg.sender).transfer(reservation.amount);\n\n        emit ReservationCancelled(_reservationId);\n    }\n\n    //     \n    function rateReservation(uint256 _reservationId, uint8 _rating) public {\n        Reservation storage reservation = reservations[_reservationId];\n        require(reservation.user == msg.sender, \"Not the reservation owner\");\n        require(reservation.status == 1, \"Reservation not confirmed\");\n        require(_rating >= 1 && _rating <= 5, \"Rating must be between 1 and 5\");\n\n        reservation.rating = _rating;\n    }\n\n    //      (  )\n    function updateRoomStatus(\n        uint256 _hotelId,\n        uint256 _roomNumber,\n        RoomStatus _newStatus\n    ) public onlyHotelManager(_hotelId) {\n        hotelRooms[_hotelId][_roomNumber].status = _newStatus;\n        emit RoomStatusUpdated(_hotelId, _roomNumber, _newStatus);\n    }\n\n    //    \n    function getReservation(uint256 _reservationId)\n        public\n        view\n        returns (Reservation memory)\n    {\n        return reservations[_reservationId];\n    }\n\n    //        \n    function getMonthlyReservationCount(uint256 _year, uint256 _month)\n        public\n        view\n        returns (uint256)\n    {\n        return yearMonthReservationCount[_year][_month];\n    }\n\n    //        \n    function getTotalReservationsForYear(uint256 _year)\n        public\n        view\n        returns (uint256)\n    {\n        return yearTotalReservationCount[_year];\n    }\n\n    //       \n    function getMonthlyReservationsForYear(uint256 _year)\n        public\n        view\n        returns (uint256[] memory)\n    {\n        uint256[] memory monthlyCounts = new uint256[](12);\n\n        for (uint256 month = 1; month <= 12; month++) {\n            monthlyCounts[month - 1] = yearMonthReservationCount[_year][month];\n        }\n\n        return monthlyCounts;\n    }\n\n    //       \n    function getHotelRooms(uint256 _hotelId)\n        public\n        view\n        returns (uint256[] memory)\n    {\n        return hotelRoomsList[_hotelId];\n    }\n\n    //     \n    function calculatePrice(\n        uint256 _hotelId,\n        uint256 _roomNumber,\n        uint256 _checkInDate,\n        uint256 _checkOutDate\n    ) internal view returns (uint256) {\n        uint256 numberOfDays = (_checkOutDate - _checkInDate) / 1 days;\n        return hotelRooms[_hotelId][_roomNumber].price * numberOfDays;\n    }\n\n    //     3       \n    function getHotelReservationsForDate(uint256 _hotelId, uint256 _date)\n        public\n        view\n        returns (uint256[4] memory)\n    {\n        uint256[4] memory reservationCounts;\n        uint256 year = _date / 10000;\n        uint256 month = (_date % 10000) / 100;\n        uint256 day = _date % 100;\n\n        for (uint256 i = 0; i < 4; i++) {\n            uint256 targetYear = year - 3 + i;\n            uint256 targetDate = (targetYear * 10000) + (month * 100) + day;\n            reservationCounts[i] = dateReservationCount[_hotelId][targetDate];\n        }\n\n        return reservationCounts;\n    }\n}\n",
  "sourcePath": "C:\\Code\\block_Ex\\hotel_project\\contracts\\HotelBooking.sol",
  "compiler": {
    "name": "solc",
    "version": "0.8.19+commit.7dd6d404.Emscripten.clang"
  },
  "schemaVersion": "3.4.16",
  "updatedAt": "2025-01-14T00:41:54.814Z",
  "networkType": "ethereum",
  "devdoc": {
    "kind": "dev",
    "methods": {},
    "version": 1
  },
  "userdoc": {
    "kind": "user",
    "methods": {},
    "version": 1
  }
}